{
  "_format": "hh-sol-artifact-1",
  "contractName": "PixelCredentials",
  "sourceName": "contracts/PixelCredentials.sol",
  "abi": [
    {
      "inputs": [],
      "stateMutability": "nonpayable",
      "type": "constructor"
    },
    {
      "anonymous": false,
      "inputs": [
        {
          "indexed": true,
          "internalType": "uint256",
          "name": "id",
          "type": "uint256"
        },
        {
          "indexed": true,
          "internalType": "address",
          "name": "recipient",
          "type": "address"
        },
        {
          "indexed": false,
          "internalType": "string",
          "name": "credentialType",
          "type": "string"
        },
        {
          "indexed": false,
          "internalType": "uint256",
          "name": "score",
          "type": "uint256"
        },
        {
          "indexed": false,
          "internalType": "uint256",
          "name": "timestamp",
          "type": "uint256"
        }
      ],
      "name": "CredentialIssued",
      "type": "event"
    },
    {
      "anonymous": false,
      "inputs": [
        {
          "indexed": true,
          "internalType": "uint256",
          "name": "id",
          "type": "uint256"
        },
        {
          "indexed": false,
          "internalType": "uint256",
          "name": "timestamp",
          "type": "uint256"
        }
      ],
      "name": "CredentialRevoked",
      "type": "event"
    },
    {
      "anonymous": false,
      "inputs": [
        {
          "indexed": true,
          "internalType": "address",
          "name": "previousOwner",
          "type": "address"
        },
        {
          "indexed": true,
          "internalType": "address",
          "name": "newOwner",
          "type": "address"
        }
      ],
      "name": "OwnershipTransferred",
      "type": "event"
    },
    {
      "inputs": [
        {
          "internalType": "uint256",
          "name": "",
          "type": "uint256"
        }
      ],
      "name": "credentials",
      "outputs": [
        {
          "internalType": "uint256",
          "name": "id",
          "type": "uint256"
        },
        {
          "internalType": "address",
          "name": "recipient",
          "type": "address"
        },
        {
          "internalType": "string",
          "name": "credentialType",
          "type": "string"
        },
        {
          "internalType": "uint256",
          "name": "score",
          "type": "uint256"
        },
        {
          "internalType": "string",
          "name": "metadata",
          "type": "string"
        },
        {
          "internalType": "uint256",
          "name": "timestamp",
          "type": "uint256"
        },
        {
          "internalType": "bool",
          "name": "isValid",
          "type": "bool"
        }
      ],
      "stateMutability": "view",
      "type": "function"
    },
    {
      "inputs": [
        {
          "internalType": "uint256",
          "name": "credentialId",
          "type": "uint256"
        }
      ],
      "name": "getCredential",
      "outputs": [
        {
          "internalType": "uint256",
          "name": "id",
          "type": "uint256"
        },
        {
          "internalType": "address",
          "name": "recipient",
          "type": "address"
        },
        {
          "internalType": "string",
          "name": "credentialType",
          "type": "string"
        },
        {
          "internalType": "uint256",
          "name": "score",
          "type": "uint256"
        },
        {
          "internalType": "string",
          "name": "metadata",
          "type": "string"
        },
        {
          "internalType": "uint256",
          "name": "timestamp",
          "type": "uint256"
        },
        {
          "internalType": "bool",
          "name": "isValid",
          "type": "bool"
        }
      ],
      "stateMutability": "view",
      "type": "function"
    },
    {
      "inputs": [
        {
          "internalType": "address",
          "name": "user",
          "type": "address"
        }
      ],
      "name": "getUserCredentials",
      "outputs": [
        {
          "internalType": "uint256[]",
          "name": "",
          "type": "uint256[]"
        }
      ],
      "stateMutability": "view",
      "type": "function"
    },
    {
      "inputs": [
        {
          "internalType": "address",
          "name": "recipient",
          "type": "address"
        },
        {
          "internalType": "string",
          "name": "credentialType",
          "type": "string"
        },
        {
          "internalType": "uint256",
          "name": "score",
          "type": "uint256"
        },
        {
          "internalType": "string",
          "name": "metadata",
          "type": "string"
        }
      ],
      "name": "issueCredential",
      "outputs": [
        {
          "internalType": "uint256",
          "name": "",
          "type": "uint256"
        }
      ],
      "stateMutability": "nonpayable",
      "type": "function"
    },
    {
      "inputs": [],
      "name": "owner",
      "outputs": [
        {
          "internalType": "address",
          "name": "",
          "type": "address"
        }
      ],
      "stateMutability": "view",
      "type": "function"
    },
    {
      "inputs": [],
      "name": "renounceOwnership",
      "outputs": [],
      "stateMutability": "nonpayable",
      "type": "function"
    },
    {
      "inputs": [
        {
          "internalType": "uint256",
          "name": "credentialId",
          "type": "uint256"
        }
      ],
      "name": "revokeCredential",
      "outputs": [],
      "stateMutability": "nonpayable",
      "type": "function"
    },
    {
      "inputs": [
        {
          "internalType": "address",
          "name": "newOwner",
          "type": "address"
        }
      ],
      "name": "transferOwnership",
      "outputs": [],
      "stateMutability": "nonpayable",
      "type": "function"
    },
    {
      "inputs": [
        {
          "internalType": "address",
          "name": "",
          "type": "address"
        },
        {
          "internalType": "uint256",
          "name": "",
          "type": "uint256"
        }
      ],
      "name": "userCredentials",
      "outputs": [
        {
          "internalType": "uint256",
          "name": "",
          "type": "uint256"
        }
      ],
      "stateMutability": "view",
      "type": "function"
    }
  ],
  "bytecode": "0x608060405234801561001057600080fd5b5061001a33610028565b61002333610028565b610078565b600080546001600160a01b038381166001600160a01b0319831681178455604051919092169283917f8be0079c531659141344cd1fd0a4f28419497f9722a3daafe3b4186f6b6457e09190a35050565b610cc3806100876000396000f3fe608060405234801561001057600080fd5b50600436106100935760003560e01c80638dd18d2d116100665780638dd18d2d146100f65780639364ace91461011c578063c76d29191461012f578063e0574e3f1461014f578063f2fde38b1461016257600080fd5b80631b87278d146100985780636cad7f48146100ad578063715018a6146100d35780638da5cb5b146100db575b600080fd5b6100ab6100a6366004610895565b610175565b005b6100c06100bb36600461096d565b61023b565b6040519081526020015b60405180910390f35b6100ab61039f565b6000546040516001600160a01b0390911681526020016100ca565b610109610104366004610895565b6103b3565b6040516100ca9796959493929190610a31565b6100c061012a366004610a8f565b61057b565b61014261013d366004610ab9565b6105ac565b6040516100ca9190610adb565b61010961015d366004610895565b610618565b6100ab610170366004610ab9565b610772565b61017d6107eb565b60008181526002602052604090206006015460ff166101e35760405162461bcd60e51b815260206004820152601a60248201527f43726564656e7469616c20616c7265616479207265766f6b656400000000000060448201526064015b60405180910390fd5b60008181526002602052604090819020600601805460ff191690555181907ffc0c6a29d75b4620993738aac582a9145cac1eb7095d5694e688ee34264975b7906102309042815260200190565b60405180910390a250565b60006102456107eb565b610253600180546001019055565b600061025e60015490565b6040805160e0810182528281526001600160a01b0389811660208084019182528385018b8152606085018b9052608085018a90524260a0860152600160c0860181905260008881526002938490529690962085518155925195830180546001600160a01b0319169690941695909517909255925193945090928392918201906102e79082610ba8565b5060608201516003820155608082015160048201906103069082610ba8565b5060a0820151600582015560c0909101516006909101805460ff19169115159190911790556001600160a01b0387166000818152600360209081526040808320805460018101825590845291909220018490555183907fef11dc2811f178c78ba44b5fa10078d595007e6a3d6c0ba22416becb9656614b9061038d908a908a904290610c68565b60405180910390a35095945050505050565b6103a76107eb565b6103b16000610845565b565b6000818152600260208181526040808420815160e0810183528154815260018201546001600160a01b03169381019390935292830180548594606094869486948694859485949390929084019161040990610b1f565b80601f016020809104026020016040519081016040528092919081815260200182805461043590610b1f565b80156104825780601f1061045757610100808354040283529160200191610482565b820191906000526020600020905b81548152906001019060200180831161046557829003601f168201915b50505050508152602001600382015481526020016004820180546104a590610b1f565b80601f01602080910402602001604051908101604052809291908181526020018280546104d190610b1f565b801561051e5780601f106104f35761010080835404028352916020019161051e565b820191906000526020600020905b81548152906001019060200180831161050157829003601f168201915b5050509183525050600582015460208083019190915260069092015460ff161515604091820152825191830151908301516060840151608085015160a086015160c090960151949f939e50919c509a509850919650945092505050565b6003602052816000526040600020818154811061059757600080fd5b90600052602060002001600091509150505481565b6001600160a01b03811660009081526003602090815260409182902080548351818402810184019094528084526060939283018282801561060c57602002820191906000526020600020905b8154815260200190600101908083116105f8575b50505050509050919050565b600260208190526000918252604090912080546001820154928201805491936001600160a01b0316929161064b90610b1f565b80601f016020809104026020016040519081016040528092919081815260200182805461067790610b1f565b80156106c45780601f10610699576101008083540402835291602001916106c4565b820191906000526020600020905b8154815290600101906020018083116106a757829003601f168201915b5050505050908060030154908060040180546106df90610b1f565b80601f016020809104026020016040519081016040528092919081815260200182805461070b90610b1f565b80156107585780601f1061072d57610100808354040283529160200191610758565b820191906000526020600020905b81548152906001019060200180831161073b57829003601f168201915b50505050600583015460069093015491929160ff16905087565b61077a6107eb565b6001600160a01b0381166107df5760405162461bcd60e51b815260206004820152602660248201527f4f776e61626c653a206e6577206f776e657220697320746865207a65726f206160448201526564647265737360d01b60648201526084016101da565b6107e881610845565b50565b6000546001600160a01b031633146103b15760405162461bcd60e51b815260206004820181905260248201527f4f776e61626c653a2063616c6c6572206973206e6f7420746865206f776e657260448201526064016101da565b600080546001600160a01b038381166001600160a01b0319831681178455604051919092169283917f8be0079c531659141344cd1fd0a4f28419497f9722a3daafe3b4186f6b6457e09190a35050565b6000602082840312156108a757600080fd5b5035919050565b80356001600160a01b03811681146108c557600080fd5b919050565b634e487b7160e01b600052604160045260246000fd5b600082601f8301126108f157600080fd5b813567ffffffffffffffff8082111561090c5761090c6108ca565b604051601f8301601f19908116603f01168101908282118183101715610934576109346108ca565b8160405283815286602085880101111561094d57600080fd5b836020870160208301376000602085830101528094505050505092915050565b6000806000806080858703121561098357600080fd5b61098c856108ae565b9350602085013567ffffffffffffffff808211156109a957600080fd5b6109b5888389016108e0565b94506040870135935060608701359150808211156109d257600080fd5b506109df878288016108e0565b91505092959194509250565b6000815180845260005b81811015610a11576020818501810151868301820152016109f5565b506000602082860101526020601f19601f83011685010191505092915050565b8781526001600160a01b038716602082015260e060408201819052600090610a5b908301886109eb565b8660608401528281036080840152610a7381876109eb565b60a0840195909552505090151560c09091015295945050505050565b60008060408385031215610aa257600080fd5b610aab836108ae565b946020939093013593505050565b600060208284031215610acb57600080fd5b610ad4826108ae565b9392505050565b6020808252825182820181905260009190848201906040850190845b81811015610b1357835183529284019291840191600101610af7565b50909695505050505050565b600181811c90821680610b3357607f821691505b602082108103610b5357634e487b7160e01b600052602260045260246000fd5b50919050565b601f821115610ba357600081815260208120601f850160051c81016020861015610b805750805b601f850160051c820191505b81811015610b9f57828155600101610b8c565b5050505b505050565b815167ffffffffffffffff811115610bc257610bc26108ca565b610bd681610bd08454610b1f565b84610b59565b602080601f831160018114610c0b5760008415610bf35750858301515b600019600386901b1c1916600185901b178555610b9f565b600085815260208120601f198616915b82811015610c3a57888601518255948401946001909101908401610c1b565b5085821015610c585787850151600019600388901b60f8161c191681555b5050505050600190811b01905550565b606081526000610c7b60608301866109eb565b6020830194909452506040015291905056fea264697066735822122012588f0ced0d2301e2d97effcd06736a8dc1cf0b859ab35d50b21992810a060b64736f6c63430008130033",
  "linkReferences": {},
  "deployedLinkReferences": {}
}